{
    "contractName": "Auction",
    "abi": [
        {
            "inputs": [
                {
                    "internalType": "uint256",
                    "name": "contractIndex",
                    "type": "uint256"
                },
                {
                    "internalType": "address",
                    "name": "member",
                    "type": "address"
                }
            ],
            "name": "addMember",
            "outputs": [],
            "stateMutability": "nonpayable",
            "type": "function"
        },
        {
            "inputs": [
                {
                    "internalType": "address",
                    "name": "",
                    "type": "address"
                },
                {
                    "internalType": "uint256",
                    "name": "",
                    "type": "uint256"
                }
            ],
            "name": "bids",
            "outputs": [
                {
                    "internalType": "uint256",
                    "name": "",
                    "type": "uint256"
                }
            ],
            "stateMutability": "view",
            "type": "function"
        },
        {
            "inputs": [
                {
                    "internalType": "uint256",
                    "name": "",
                    "type": "uint256"
                }
            ],
            "name": "contracts",
            "outputs": [
                {
                    "internalType": "address",
                    "name": "contractAddress",
                    "type": "address"
                },
                {
                    "internalType": "uint256",
                    "name": "startTime",
                    "type": "uint256"
                },
                {
                    "internalType": "uint256",
                    "name": "finishTime",
                    "type": "uint256"
                },
                {
                    "internalType": "uint256",
                    "name": "minBid",
                    "type": "uint256"
                },
                {
                    "internalType": "bool",
                    "name": "publicAuction",
                    "type": "bool"
                }
            ],
            "stateMutability": "view",
            "type": "function"
        },
        {
            "inputs": [
                {
                    "internalType": "address",
                    "name": "contractAddress",
                    "type": "address"
                },
                {
                    "internalType": "uint256",
                    "name": "startTime",
                    "type": "uint256"
                },
                {
                    "internalType": "uint256",
                    "name": "finishTime",
                    "type": "uint256"
                },
                {
                    "internalType": "uint256",
                    "name": "minBid",
                    "type": "uint256"
                },
                {
                    "internalType": "address[]",
                    "name": "members",
                    "type": "address[]"
                },
                {
                    "internalType": "bool",
                    "name": "publicAuction",
                    "type": "bool"
                }
            ],
            "name": "createContract",
            "outputs": [],
            "stateMutability": "nonpayable",
            "type": "function"
        },
        {
            "inputs": [
                {
                    "internalType": "uint256",
                    "name": "contractIndex",
                    "type": "uint256"
                }
            ],
            "name": "findTheWinner",
            "outputs": [],
            "stateMutability": "payable",
            "type": "function"
        },
        {
            "inputs": [
                {
                    "internalType": "uint256",
                    "name": "contractIndex",
                    "type": "uint256"
                }
            ],
            "name": "placeBid",
            "outputs": [],
            "stateMutability": "payable",
            "type": "function"
        }
    ],
    "bytecode": "608060405234801561001057600080fd5b50610dd3806100206000396000f3fe6080604052600436106100555760003560e01c806301495c1c1461005a578063474da79a146100a55780634ddfb5b1146100f957806374d0a6761461010e5780639979ef451461012e578063bcffea2914610141575b600080fd5b34801561006657600080fd5b50610092610075366004610ba6565b600160209081526000928352604080842090915290825290205481565b6040519081526020015b60405180910390f35b3480156100b157600080fd5b506100c56100c0366004610bd0565b610161565b604080516001600160a01b03909616865260208601949094529284019190915260608301521515608082015260a00161009c565b61010c610107366004610bd0565b6101af565b005b34801561011a57600080fd5b5061010c610129366004610be9565b610513565b61010c61013c366004610bd0565b6105f2565b34801561014d57600080fd5b5061010c61015c366004610c3b565b61092e565b6000818154811061017157600080fd5b6000918252602090912060079091020180546001820154600283015460038401546006909401546001600160a01b0390931694509092909160ff1685565b600081815481106101c2576101c2610d3f565b60009182526020909120600790910201546001600160a01b031633146102405760405162461bcd60e51b815260206004820152602860248201527f4f6e6c7920636f6e7472616374206f776e65722063616e2066696e6420746865604482015267103bb4b73732b91760c11b60648201526084015b60405180910390fd5b6000818154811061025357610253610d3f565b9060005260206000209060070201600201544210156102b45760405162461bcd60e51b815260206004820152601a60248201527f41756374696f6e20686173206e6f7420656e646564207965742e0000000000006044820152606401610237565b600080805b600084815481106102cc576102cc610d3f565b9060005260206000209060070201600401805490508110156103715760008085815481106102fc576102fc610d3f565b9060005260206000209060070201600401828154811061031e5761031e610d3f565b60009182526020808320909101546001600160a01b03168083526001825260408084208985529092529120549091508381111561035c578194508093505b5050808061036990610d6b565b9150506102b9565b506000838154811061038557610385610d3f565b600091825260208220600790910201546040516001600160a01b039091169183156108fc02918491818181858888f193505050501580156103ca573d6000803e3d6000fd5b5060005b600084815481106103e1576103e1610d3f565b9060005260206000209060070201600401805490508110156104dd57600080858154811061041157610411610d3f565b9060005260206000209060070201600401828154811061043357610433610d3f565b60009182526020808320909101546001600160a01b039081168084526001835260408085208a8652909352919092205490925090851682146104a7576040516001600160a01b0383169082156108fc029083906000818181858888f193505050501580156104a5573d6000803e3d6000fd5b505b506001600160a01b03166000908152600160209081526040808320878452909152812055806104d581610d6b565b9150506103ce565b50600083815481106104f1576104f1610d3f565b9060005260206000209060070201600401600061050e9190610aef565b505050565b6000828154811061052657610526610d3f565b60009182526020909120600790910201546001600160a01b0316331461059a5760405162461bcd60e51b8152602060048201526024808201527f4f6e6c7920636f6e7472616374206f776e65722063616e20616464206d656d6260448201526332b9399760e11b6064820152608401610237565b600082815481106105ad576105ad610d3f565b60009182526020808320600792909202909101600501805460018101825590835291200180546001600160a01b0319166001600160a01b039290921691909117905550565b6000818154811061060557610605610d3f565b90600052602060002090600702016003015434116106765760405162461bcd60e51b815260206004820152602860248201527f42696420616d6f756e74206973206c657373207468616e20746865206d696e6960448201526736bab6903134b21760c11b6064820152608401610237565b6000818154811061068957610689610d3f565b9060005260206000209060070201600101544210156106ea5760405162461bcd60e51b815260206004820152601c60248201527f41756374696f6e20686173206e6f742073746172746564207965742e000000006044820152606401610237565b600081815481106106fd576106fd610d3f565b90600052602060002090600702016002015442106107525760405162461bcd60e51b815260206004820152601260248201527120bab1ba34b7b7103430b99032b73232b21760711b6044820152606401610237565b6000818154811061076557610765610d3f565b6000918252602082206006600790920201015460ff1615159003610893576000805b6000838154811061079a5761079a610d3f565b90600052602060002090600702016005018054905081101561082a57336001600160a01b0316600084815481106107d3576107d3610d3f565b906000526020600020906007020160050182815481106107f5576107f5610d3f565b6000918252602090912001546001600160a01b031603610818576001915061082a565b8061082281610d6b565b915050610787565b506001811515146108915760405162461bcd60e51b815260206004820152602b60248201527f596f7520617265206e6f7420616c6c6f77656420746f2062696420696e20746860448201526a34b99030bab1ba34b7b71760a91b6064820152608401610237565b505b33600090815260016020908152604080832084845290915281205490036108fc57600081815481106108c7576108c7610d3f565b60009182526020808320600460079093020191909101805460018101825590835291200180546001600160a01b031916331790555b33600090815260016020908152604080832084845290915281208054349290610926908490610d84565b909155505050565b8385106109745760405162461bcd60e51b815260206004820152601460248201527324b73b30b634b2103334b734b9b4103a34b6b29760611b6044820152606401610237565b600083116109bb5760405162461bcd60e51b815260206004820152601460248201527324b73b30b634b21036b4b734b6bab6903134b21760611b6044820152606401610237565b60006040518060e00160405280886001600160a01b03168152602001878152602001868152602001858152602001600067ffffffffffffffff811115610a0357610a03610c15565b604051908082528060200260200182016040528015610a2c578160200160208202803683370190505b5081526020808201869052841515604092830152835460018082018655600095865294829020845160079092020180546001600160a01b0319166001600160a01b0390921691909117815583820151948101949094559082015160028401556060820151600384015560808201518051929392610aaf9260048501920190610b10565b5060a08201518051610acb916005840191602090910190610b10565b5060c091909101516006909101805460ff1916911515919091179055505050505050565b5080546000825590600052602060002090810190610b0d9190610b75565b50565b828054828255906000526020600020908101928215610b65579160200282015b82811115610b6557825182546001600160a01b0319166001600160a01b03909116178255602090920191600190910190610b30565b50610b71929150610b75565b5090565b5b80821115610b715760008155600101610b76565b80356001600160a01b0381168114610ba157600080fd5b919050565b60008060408385031215610bb957600080fd5b610bc283610b8a565b946020939093013593505050565b600060208284031215610be257600080fd5b5035919050565b60008060408385031215610bfc57600080fd5b82359150610c0c60208401610b8a565b90509250929050565b634e487b7160e01b600052604160045260246000fd5b80358015158114610ba157600080fd5b60008060008060008060c08789031215610c5457600080fd5b610c5d87610b8a565b955060208088013595506040880135945060608801359350608088013567ffffffffffffffff80821115610c9057600080fd5b818a0191508a601f830112610ca457600080fd5b813581811115610cb657610cb6610c15565b8060051b604051601f19603f83011681018181108582111715610cdb57610cdb610c15565b60405291825284820192508381018501918d831115610cf957600080fd5b938501935b82851015610d1e57610d0f85610b8a565b84529385019392850192610cfe565b809750505050505050610d3360a08801610c2b565b90509295509295509295565b634e487b7160e01b600052603260045260246000fd5b634e487b7160e01b600052601160045260246000fd5b600060018201610d7d57610d7d610d55565b5060010190565b80820180821115610d9757610d97610d55565b9291505056fea264697066735822122072dfa86922f390a485f2799ba5e2fb697f6b039610c483dd61bd25f86368b53f64736f6c63430008130033",
    "sourcePath": "/Users/erfanhabibipanah/Desktop/blockchain/auction.sol",
    "compiler": {
        "name": "solc",
        "version": "0.8.19+commit.7dd6d404"
    },
    "functionHashes": {
        "addMember(uint256,address)": "74d0a676",
        "bids(address,uint256)": "01495c1c",
        "contracts(uint256)": "474da79a",
        "createContract(address,uint256,uint256,uint256,address[],bool)": "bcffea29",
        "findTheWinner(uint256)": "4ddfb5b1",
        "placeBid(uint256)": "9979ef45"
    },
    "gasEstimates": {
        "creation": {
            "codeDepositCost": "707800",
            "executionCost": "741",
            "totalCost": "708541"
        },
        "external": {
            "addMember(uint256,address)": "55464",
            "bids(address,uint256)": "2579",
            "contracts(uint256)": "13181",
            "createContract(address,uint256,uint256,uint256,address[],bool)": "infinite",
            "findTheWinner(uint256)": "infinite",
            "placeBid(uint256)": "infinite"
        }
    }
}