{
    "contractName": "Auction",
    "abi": [
        {
            "anonymous": false,
            "inputs": [
                {
                    "indexed": true,
                    "internalType": "address",
                    "name": "from",
                    "type": "address"
                },
                {
                    "indexed": true,
                    "internalType": "address",
                    "name": "to",
                    "type": "address"
                },
                {
                    "indexed": false,
                    "internalType": "uint256",
                    "name": "amount",
                    "type": "uint256"
                }
            ],
            "name": "Transfer",
            "type": "event"
        },
        {
            "inputs": [
                {
                    "internalType": "uint256",
                    "name": "contractIndex",
                    "type": "uint256"
                },
                {
                    "internalType": "address",
                    "name": "member",
                    "type": "address"
                }
            ],
            "name": "addMember",
            "outputs": [],
            "stateMutability": "nonpayable",
            "type": "function"
        },
        {
            "inputs": [
                {
                    "internalType": "address",
                    "name": "",
                    "type": "address"
                },
                {
                    "internalType": "uint256",
                    "name": "",
                    "type": "uint256"
                }
            ],
            "name": "bids",
            "outputs": [
                {
                    "internalType": "uint256",
                    "name": "",
                    "type": "uint256"
                }
            ],
            "stateMutability": "view",
            "type": "function"
        },
        {
            "inputs": [
                {
                    "internalType": "uint256",
                    "name": "",
                    "type": "uint256"
                }
            ],
            "name": "contracts",
            "outputs": [
                {
                    "internalType": "address",
                    "name": "contractAddress",
                    "type": "address"
                },
                {
                    "internalType": "uint256",
                    "name": "startTime",
                    "type": "uint256"
                },
                {
                    "internalType": "uint256",
                    "name": "finishTime",
                    "type": "uint256"
                },
                {
                    "internalType": "uint256",
                    "name": "minBid",
                    "type": "uint256"
                },
                {
                    "internalType": "bool",
                    "name": "publicAuction",
                    "type": "bool"
                }
            ],
            "stateMutability": "view",
            "type": "function"
        },
        {
            "inputs": [
                {
                    "internalType": "address",
                    "name": "contractAddress",
                    "type": "address"
                },
                {
                    "internalType": "uint256",
                    "name": "startTime",
                    "type": "uint256"
                },
                {
                    "internalType": "uint256",
                    "name": "finishTime",
                    "type": "uint256"
                },
                {
                    "internalType": "uint256",
                    "name": "minBid",
                    "type": "uint256"
                },
                {
                    "internalType": "address[]",
                    "name": "members",
                    "type": "address[]"
                },
                {
                    "internalType": "bool",
                    "name": "publicAuction",
                    "type": "bool"
                }
            ],
            "name": "createContract",
            "outputs": [],
            "stateMutability": "nonpayable",
            "type": "function"
        },
        {
            "inputs": [
                {
                    "internalType": "uint256",
                    "name": "contractIndex",
                    "type": "uint256"
                }
            ],
            "name": "getContract",
            "outputs": [
                {
                    "internalType": "address",
                    "name": "contractAddress",
                    "type": "address"
                },
                {
                    "internalType": "uint256",
                    "name": "startTime",
                    "type": "uint256"
                },
                {
                    "internalType": "uint256",
                    "name": "finishTime",
                    "type": "uint256"
                },
                {
                    "internalType": "uint256",
                    "name": "minBid",
                    "type": "uint256"
                },
                {
                    "internalType": "address[]",
                    "name": "bidders",
                    "type": "address[]"
                },
                {
                    "internalType": "address[]",
                    "name": "members",
                    "type": "address[]"
                },
                {
                    "internalType": "bool",
                    "name": "publicAuction",
                    "type": "bool"
                }
            ],
            "stateMutability": "view",
            "type": "function"
        },
        {
            "inputs": [
                {
                    "internalType": "address payable",
                    "name": "from",
                    "type": "address"
                },
                {
                    "internalType": "uint256",
                    "name": "amount",
                    "type": "uint256"
                }
            ],
            "name": "transferFunds",
            "outputs": [],
            "stateMutability": "payable",
            "type": "function"
        }
    ],
    "bytecode": "608060405234801561001057600080fd5b50610978806100206000396000f3fe6080604052600436106100555760003560e01c806301495c1c1461005a578063474da79a146100a55780636ebc8c86146100f957806374d0a6761461012c578063990dc9db1461014e578063bcffea2914610161575b600080fd5b34801561006657600080fd5b506100926100753660046106eb565b600160209081526000928352604080842090915290825290205481565b6040519081526020015b60405180910390f35b3480156100b157600080fd5b506100c56100c0366004610717565b610181565b604080516001600160a01b03909616865260208601949094529284019190915260608301521515608082015260a00161009c565b34801561010557600080fd5b50610119610114366004610717565b6101cf565b60405161009c9796959493929190610774565b34801561013857600080fd5b5061014c6101473660046107d0565b610311565b005b61014c61015c3660046106eb565b61036c565b34801561016d57600080fd5b5061014c61017c366004610826565b610488565b6000818154811061019157600080fd5b6000918252602090912060079091020180546001820154600283015460038401546006909401546001600160a01b0390931694509092909160ff1685565b600080600080606080600080600089815481106101ee576101ee61092c565b906000526020600020906007020190508060000160009054906101000a90046001600160a01b031681600101548260020154836003015484600401856005018660060160009054906101000a900460ff168280548060200260200160405190810160405280929190818152602001828054801561029457602002820191906000526020600020905b81546001600160a01b03168152600190910190602001808311610276575b50505050509250818054806020026020016040519081016040528092919081815260200182805480156102f057602002820191906000526020600020905b81546001600160a01b031681526001909101906020018083116102d2575b50505050509150975097509750975097509750975050919395979092949650565b60008083815481106103255761032561092c565b60009182526020808320600792909202909101600501805460018101825590835291200180546001600160a01b0319166001600160a01b0393909316929092179091555050565b336103b75760405162461bcd60e51b8152602060048201526016602482015275496e76616c69642073656e646572206164647265737360501b60448201526064015b60405180910390fd5b6001600160a01b03821661040d5760405162461bcd60e51b815260206004820152601960248201527f496e76616c696420726563697069656e7420616464726573730000000000000060448201526064016103ae565b6040516001600160a01b0383169082156108fc029083906000818181858888f19350505050158015610443573d6000803e3d6000fd5b5060405181815233906001600160a01b038416907fddf252ad1be2c89b69c2b068fc378daa952ba7f163c4a11628f55a4df523b3ef9060200160405180910390a35050565b8385106104ce5760405162461bcd60e51b815260206004820152601460248201527324b73b30b634b2103334b734b9b4103a34b6b29760611b60448201526064016103ae565b600083116105155760405162461bcd60e51b815260206004820152601460248201527324b73b30b634b21036b4b734b6bab6903134b21760611b60448201526064016103ae565b60006040518060e00160405280886001600160a01b03168152602001878152602001868152602001858152602001600067ffffffffffffffff81111561055d5761055d610800565b604051908082528060200260200182016040528015610586578160200160208202803683370190505b5081526020808201869052841515604092830152835460018082018655600095865294829020845160079092020180546001600160a01b0319166001600160a01b03909216919091178155838201519481019490945590820151600284015560608201516003840155608082015180519293926106099260048501920190610649565b5060a08201518051610625916005840191602090910190610649565b5060c091909101516006909101805460ff1916911515919091179055505050505050565b82805482825590600052602060002090810192821561069e579160200282015b8281111561069e57825182546001600160a01b0319166001600160a01b03909116178255602090920191600190910190610669565b506106aa9291506106ae565b5090565b5b808211156106aa57600081556001016106af565b6001600160a01b03811681146106d857600080fd5b50565b80356106e6816106c3565b919050565b600080604083850312156106fe57600080fd5b8235610709816106c3565b946020939093013593505050565b60006020828403121561072957600080fd5b5035919050565b600081518084526020808501945080840160005b838110156107695781516001600160a01b031687529582019590820190600101610744565b509495945050505050565b60018060a01b038816815286602082015285604082015284606082015260e0608082015260006107a760e0830186610730565b82810360a08401526107b98186610730565b91505082151560c083015298975050505050505050565b600080604083850312156107e357600080fd5b8235915060208301356107f5816106c3565b809150509250929050565b634e487b7160e01b600052604160045260246000fd5b803580151581146106e657600080fd5b60008060008060008060c0878903121561083f57600080fd5b863561084a816106c3565b955060208781013595506040880135945060608801359350608088013567ffffffffffffffff8082111561087d57600080fd5b818a0191508a601f83011261089157600080fd5b8135818111156108a3576108a3610800565b8060051b604051601f19603f830116810181811085821117156108c8576108c8610800565b60405291825284820192508381018501918d8311156108e657600080fd5b938501935b8285101561090b576108fc856106db565b845293850193928501926108eb565b80975050505050505061092060a08801610816565b90509295509295509295565b634e487b7160e01b600052603260045260246000fdfea26469706673582212202f6e65d3b880c5b05ecfb048c79d4b2b3885e6b742c4ad267a2a5b5f5e097f9364736f6c63430008130033",
    "sourcePath": "/Users/erfanhabibipanah/Documents/uni-project/Auction/auction.sol",
    "compiler": {
        "name": "solc",
        "version": "0.8.19+commit.7dd6d404"
    },
    "functionHashes": {
        "addMember(uint256,address)": "74d0a676",
        "bids(address,uint256)": "01495c1c",
        "contracts(uint256)": "474da79a",
        "createContract(address,uint256,uint256,uint256,address[],bool)": "bcffea29",
        "getContract(uint256)": "6ebc8c86",
        "transferFunds(address,uint256)": "990dc9db"
    },
    "gasEstimates": {
        "creation": {
            "codeDepositCost": "484800",
            "executionCost": "518",
            "totalCost": "485318"
        },
        "external": {
            "addMember(uint256,address)": "51131",
            "bids(address,uint256)": "2573",
            "contracts(uint256)": "13181",
            "createContract(address,uint256,uint256,uint256,address[],bool)": "infinite",
            "getContract(uint256)": "infinite",
            "transferFunds(address,uint256)": "infinite"
        }
    }
}