{
    "contractName": "Auction",
    "abi": [
        {
            "inputs": [
                {
                    "internalType": "uint256",
                    "name": "contractIndex",
                    "type": "uint256"
                },
                {
                    "internalType": "address",
                    "name": "member",
                    "type": "address"
                }
            ],
            "name": "addMember",
            "outputs": [],
            "stateMutability": "nonpayable",
            "type": "function"
        },
        {
            "inputs": [
                {
                    "internalType": "address",
                    "name": "",
                    "type": "address"
                },
                {
                    "internalType": "uint256",
                    "name": "",
                    "type": "uint256"
                }
            ],
            "name": "bids",
            "outputs": [
                {
                    "internalType": "uint256",
                    "name": "",
                    "type": "uint256"
                }
            ],
            "stateMutability": "view",
            "type": "function"
        },
        {
            "inputs": [
                {
                    "internalType": "uint256",
                    "name": "",
                    "type": "uint256"
                }
            ],
            "name": "contracts",
            "outputs": [
                {
                    "internalType": "address",
                    "name": "contractAddress",
                    "type": "address"
                },
                {
                    "internalType": "uint256",
                    "name": "startTime",
                    "type": "uint256"
                },
                {
                    "internalType": "uint256",
                    "name": "finishTime",
                    "type": "uint256"
                },
                {
                    "internalType": "uint256",
                    "name": "minBid",
                    "type": "uint256"
                },
                {
                    "internalType": "bool",
                    "name": "publicAuction",
                    "type": "bool"
                }
            ],
            "stateMutability": "view",
            "type": "function"
        },
        {
            "inputs": [
                {
                    "internalType": "address",
                    "name": "contractAddress",
                    "type": "address"
                },
                {
                    "internalType": "uint256",
                    "name": "startTime",
                    "type": "uint256"
                },
                {
                    "internalType": "uint256",
                    "name": "finishTime",
                    "type": "uint256"
                },
                {
                    "internalType": "uint256",
                    "name": "minBid",
                    "type": "uint256"
                },
                {
                    "internalType": "address[]",
                    "name": "members",
                    "type": "address[]"
                },
                {
                    "internalType": "bool",
                    "name": "publicAuction",
                    "type": "bool"
                }
            ],
            "name": "createContract",
            "outputs": [],
            "stateMutability": "nonpayable",
            "type": "function"
        },
        {
            "inputs": [
                {
                    "internalType": "uint256",
                    "name": "contractIndex",
                    "type": "uint256"
                }
            ],
            "name": "findTheWinner",
            "outputs": [],
            "stateMutability": "payable",
            "type": "function"
        },
        {
            "inputs": [
                {
                    "internalType": "uint256",
                    "name": "contractIndex",
                    "type": "uint256"
                }
            ],
            "name": "getContract",
            "outputs": [
                {
                    "internalType": "address",
                    "name": "contractAddress",
                    "type": "address"
                },
                {
                    "internalType": "uint256",
                    "name": "startTime",
                    "type": "uint256"
                },
                {
                    "internalType": "uint256",
                    "name": "finishTime",
                    "type": "uint256"
                },
                {
                    "internalType": "uint256",
                    "name": "minBid",
                    "type": "uint256"
                },
                {
                    "internalType": "address[]",
                    "name": "bidders",
                    "type": "address[]"
                },
                {
                    "internalType": "address[]",
                    "name": "members",
                    "type": "address[]"
                },
                {
                    "internalType": "bool",
                    "name": "publicAuction",
                    "type": "bool"
                }
            ],
            "stateMutability": "view",
            "type": "function"
        },
        {
            "inputs": [
                {
                    "internalType": "uint256",
                    "name": "contractIndex",
                    "type": "uint256"
                }
            ],
            "name": "placeBid",
            "outputs": [],
            "stateMutability": "payable",
            "type": "function"
        }
    ],
    "bytecode": "608060405234801561001057600080fd5b50610d16806100206000396000f3fe6080604052600436106100705760003560e01c80636ebc8c861161004e5780636ebc8c861461012957806374d0a6761461015c5780639979ef451461017c578063bcffea291461018f57600080fd5b806301495c1c14610075578063474da79a146100c05780634ddfb5b114610114575b600080fd5b34801561008157600080fd5b506100ad610090366004610a49565b600160209081526000928352604080842090915290825290205481565b6040519081526020015b60405180910390f35b3480156100cc57600080fd5b506100e06100db366004610a73565b6101af565b604080516001600160a01b03909616865260208601949094529284019190915260608301521515608082015260a0016100b7565b610127610122366004610a73565b6101fd565b005b34801561013557600080fd5b50610149610144366004610a73565b6103bb565b6040516100b79796959493929190610ad0565b34801561016857600080fd5b50610127610177366004610b2c565b6104fd565b61012761018a366004610a73565b610558565b34801561019b57600080fd5b506101276101aa366004610b7e565b6107d1565b600081815481106101bf57600080fd5b6000918252602090912060079091020180546001820154600283015460038401546006909401546001600160a01b0390931694509092909160ff1685565b600080828154811061021157610211610c82565b600091825260208220600790910201915080805b600484015481101561029b57600084600401828154811061024857610248610c82565b60009182526020808320909101546001600160a01b03168083526001825260408084208a855290925291205490915083811115610286578194508093505b5050808061029390610cae565b915050610225565b5082546040516001600160a01b039091169082156108fc029083906000818181858888f193505050501580156102d5573d6000803e3d6000fd5b5060005b60048401548110156103a65760008460040182815481106102fc576102fc610c82565b60009182526020808320909101546001600160a01b039081168084526001835260408085208b865290935291909220549092509085168214610370576040516001600160a01b0383169082156108fc029083906000818181858888f1935050505015801561036e573d6000803e3d6000fd5b505b506001600160a01b031660009081526001602090815260408083208884529091528120558061039e81610cae565b9150506102d9565b506103b5600484016000610992565b50505050565b600080600080606080600080600089815481106103da576103da610c82565b906000526020600020906007020190508060000160009054906101000a90046001600160a01b031681600101548260020154836003015484600401856005018660060160009054906101000a900460ff168280548060200260200160405190810160405280929190818152602001828054801561048057602002820191906000526020600020905b81546001600160a01b03168152600190910190602001808311610462575b50505050509250818054806020026020016040519081016040528092919081815260200182805480156104dc57602002820191906000526020600020905b81546001600160a01b031681526001909101906020018083116104be575b50505050509150975097509750975097509750975050919395979092949650565b600080838154811061051157610511610c82565b60009182526020808320600792909202909101600501805460018101825590835291200180546001600160a01b0319166001600160a01b0393909316929092179091555050565b600080828154811061056c5761056c610c82565b90600052602060002090600702019050806003015434116105e55760405162461bcd60e51b815260206004820152602860248201527f42696420616d6f756e74206973206c657373207468616e20746865206d696e6960448201526736bab6903134b21760c11b60648201526084015b60405180910390fd5b80600101544210156106395760405162461bcd60e51b815260206004820152601c60248201527f41756374696f6e20686173206e6f742073746172746564207965742e0000000060448201526064016105dc565b806002015442106106815760405162461bcd60e51b815260206004820152601260248201527120bab1ba34b7b7103430b99032b73232b21760711b60448201526064016105dc565b600681015460ff16610755576000805b60058301548110156106f157336001600160a01b03168360050182815481106106bc576106bc610c82565b6000918252602090912001546001600160a01b0316036106df57600191506106f1565b806106e981610cae565b915050610691565b50806107535760405162461bcd60e51b815260206004820152602b60248201527f596f7520617265206e6f7420616c6c6f77656420746f2062696420696e20746860448201526a34b99030bab1ba34b7b71760a91b60648201526084016105dc565b505b336000908152600160209081526040808320858452909152812054900361079e57600481018054600181018255600091825260209091200180546001600160a01b031916331790555b336000908152600160209081526040808320858452909152812080543492906107c8908490610cc7565b90915550505050565b8385106108175760405162461bcd60e51b815260206004820152601460248201527324b73b30b634b2103334b734b9b4103a34b6b29760611b60448201526064016105dc565b6000831161085e5760405162461bcd60e51b815260206004820152601460248201527324b73b30b634b21036b4b734b6bab6903134b21760611b60448201526064016105dc565b60006040518060e00160405280886001600160a01b03168152602001878152602001868152602001858152602001600067ffffffffffffffff8111156108a6576108a6610b58565b6040519080825280602002602001820160405280156108cf578160200160208202803683370190505b5081526020808201869052841515604092830152835460018082018655600095865294829020845160079092020180546001600160a01b0319166001600160a01b039092169190911781558382015194810194909455908201516002840155606082015160038401556080820151805192939261095292600485019201906109b3565b5060a0820151805161096e9160058401916020909101906109b3565b5060c091909101516006909101805460ff1916911515919091179055505050505050565b50805460008255906000526020600020908101906109b09190610a18565b50565b828054828255906000526020600020908101928215610a08579160200282015b82811115610a0857825182546001600160a01b0319166001600160a01b039091161782556020909201916001909101906109d3565b50610a14929150610a18565b5090565b5b80821115610a145760008155600101610a19565b80356001600160a01b0381168114610a4457600080fd5b919050565b60008060408385031215610a5c57600080fd5b610a6583610a2d565b946020939093013593505050565b600060208284031215610a8557600080fd5b5035919050565b600081518084526020808501945080840160005b83811015610ac55781516001600160a01b031687529582019590820190600101610aa0565b509495945050505050565b60018060a01b038816815286602082015285604082015284606082015260e060808201526000610b0360e0830186610a8c565b82810360a0840152610b158186610a8c565b91505082151560c083015298975050505050505050565b60008060408385031215610b3f57600080fd5b82359150610b4f60208401610a2d565b90509250929050565b634e487b7160e01b600052604160045260246000fd5b80358015158114610a4457600080fd5b60008060008060008060c08789031215610b9757600080fd5b610ba087610a2d565b955060208088013595506040880135945060608801359350608088013567ffffffffffffffff80821115610bd357600080fd5b818a0191508a601f830112610be757600080fd5b813581811115610bf957610bf9610b58565b8060051b604051601f19603f83011681018181108582111715610c1e57610c1e610b58565b60405291825284820192508381018501918d831115610c3c57600080fd5b938501935b82851015610c6157610c5285610a2d565b84529385019392850192610c41565b809750505050505050610c7660a08801610b6e565b90509295509295509295565b634e487b7160e01b600052603260045260246000fd5b634e487b7160e01b600052601160045260246000fd5b600060018201610cc057610cc0610c98565b5060010190565b80820180821115610cda57610cda610c98565b9291505056fea2646970667358221220db7854dae9afb8e974cf491c4874d0fc96d4d09ae3a018555d83e6c06a96501264736f6c63430008130033",
    "sourcePath": "/Users/erfanhabibipanah/Documents/uni-project/Auction/auction.sol",
    "compiler": {
        "name": "solc",
        "version": "0.8.19+commit.7dd6d404"
    },
    "functionHashes": {
        "addMember(uint256,address)": "74d0a676",
        "bids(address,uint256)": "01495c1c",
        "contracts(uint256)": "474da79a",
        "createContract(address,uint256,uint256,uint256,address[],bool)": "bcffea29",
        "findTheWinner(uint256)": "4ddfb5b1",
        "getContract(uint256)": "6ebc8c86",
        "placeBid(uint256)": "9979ef45"
    },
    "gasEstimates": {
        "creation": {
            "codeDepositCost": "670000",
            "executionCost": "702",
            "totalCost": "670702"
        },
        "external": {
            "addMember(uint256,address)": "51110",
            "bids(address,uint256)": "2602",
            "contracts(uint256)": "13204",
            "createContract(address,uint256,uint256,uint256,address[],bool)": "infinite",
            "findTheWinner(uint256)": "infinite",
            "getContract(uint256)": "infinite",
            "placeBid(uint256)": "infinite"
        }
    }
}